{
  "_format": "hh-sol-artifact-1",
  "contractName": "TokenFarmFacet",
  "sourceName": "contracts/facets/TokenFarmFacet.sol",
  "abi": [
    {
      "anonymous": false,
      "inputs": [
        {
          "indexed": true,
          "internalType": "uint256",
          "name": "pid",
          "type": "uint256"
        },
        {
          "indexed": false,
          "internalType": "address[]",
          "name": "tokens",
          "type": "address[]"
        },
        {
          "indexed": false,
          "internalType": "address[]",
          "name": "validNFTs",
          "type": "address[]"
        },
        {
          "indexed": false,
          "internalType": "uint256",
          "name": "allocPoint",
          "type": "uint256"
        }
      ],
      "name": "Add",
      "type": "event"
    },
    {
      "anonymous": false,
      "inputs": [
        {
          "indexed": true,
          "internalType": "address",
          "name": "user",
          "type": "address"
        },
        {
          "indexed": true,
          "internalType": "uint256",
          "name": "pid",
          "type": "uint256"
        },
        {
          "indexed": true,
          "internalType": "uint256",
          "name": "positionid",
          "type": "uint256"
        },
        {
          "indexed": false,
          "internalType": "uint256",
          "name": "startBlock",
          "type": "uint256"
        },
        {
          "indexed": false,
          "internalType": "uint256",
          "name": "endBlock",
          "type": "uint256"
        },
        {
          "indexed": false,
          "internalType": "uint256[]",
          "name": "amounts",
          "type": "uint256[]"
        },
        {
          "indexed": false,
          "internalType": "address",
          "name": "nftAddr",
          "type": "address"
        },
        {
          "indexed": false,
          "internalType": "uint256",
          "name": "nftid",
          "type": "uint256"
        }
      ],
      "name": "Deposit",
      "type": "event"
    },
    {
      "anonymous": false,
      "inputs": [
        {
          "indexed": true,
          "internalType": "uint256",
          "name": "pid",
          "type": "uint256"
        },
        {
          "indexed": false,
          "internalType": "address[]",
          "name": "nfts",
          "type": "address[]"
        },
        {
          "indexed": false,
          "internalType": "bool[]",
          "name": "newStates",
          "type": "bool[]"
        }
      ],
      "name": "PoolUpdateNFT",
      "type": "event"
    },
    {
      "anonymous": false,
      "inputs": [
        {
          "indexed": true,
          "internalType": "address",
          "name": "user",
          "type": "address"
        },
        {
          "indexed": true,
          "internalType": "uint256",
          "name": "pid",
          "type": "uint256"
        },
        {
          "indexed": true,
          "internalType": "uint256",
          "name": "positionid",
          "type": "uint256"
        }
      ],
      "name": "Withdraw",
      "type": "event"
    },
    {
      "inputs": [
        {
          "internalType": "contract IERC20[]",
          "name": "tokens",
          "type": "address[]"
        },
        {
          "internalType": "uint256",
          "name": "allocPoint",
          "type": "uint256"
        },
        {
          "internalType": "address[]",
          "name": "validNFTs",
          "type": "address[]"
        },
        {
          "internalType": "bool",
          "name": "withUpdate",
          "type": "bool"
        }
      ],
      "name": "add",
      "outputs": [],
      "stateMutability": "nonpayable",
      "type": "function"
    },
    {
      "inputs": [
        {
          "internalType": "uint256",
          "name": "poolid",
          "type": "uint256"
        },
        {
          "internalType": "address[]",
          "name": "nfts",
          "type": "address[]"
        },
        {
          "internalType": "bool[]",
          "name": "newStates",
          "type": "bool[]"
        }
      ],
      "name": "changeValidNFTsForPool",
      "outputs": [],
      "stateMutability": "nonpayable",
      "type": "function"
    },
    {
      "inputs": [
        {
          "internalType": "uint256",
          "name": "pid",
          "type": "uint256"
        },
        {
          "internalType": "uint256[]",
          "name": "amounts",
          "type": "uint256[]"
        },
        {
          "internalType": "uint256",
          "name": "blocksAhead",
          "type": "uint256"
        },
        {
          "internalType": "address",
          "name": "nftReward",
          "type": "address"
        },
        {
          "internalType": "uint256",
          "name": "nftid",
          "type": "uint256"
        }
      ],
      "name": "deposit",
      "outputs": [],
      "stateMutability": "nonpayable",
      "type": "function"
    },
    {
      "inputs": [
        {
          "internalType": "uint256",
          "name": "poolid",
          "type": "uint256"
        },
        {
          "internalType": "address",
          "name": "nft",
          "type": "address"
        }
      ],
      "name": "isValidNFTForPool",
      "outputs": [
        {
          "internalType": "bool",
          "name": "",
          "type": "bool"
        }
      ],
      "stateMutability": "nonpayable",
      "type": "function"
    },
    {
      "inputs": [
        {
          "internalType": "uint256",
          "name": "pid",
          "type": "uint256"
        }
      ],
      "name": "poolInfo",
      "outputs": [
        {
          "components": [
            {
              "components": [
                {
                  "internalType": "contract IERC20",
                  "name": "token",
                  "type": "address"
                },
                {
                  "internalType": "uint256",
                  "name": "supply",
                  "type": "uint256"
                },
                {
                  "internalType": "uint256",
                  "name": "accSdexPerShare",
                  "type": "uint256"
                }
              ],
              "internalType": "struct PoolTokenData[]",
              "name": "tokenData",
              "type": "tuple[]"
            },
            {
              "internalType": "uint256",
              "name": "allocPoint",
              "type": "uint256"
            },
            {
              "internalType": "uint256",
              "name": "lastRewardBlock",
              "type": "uint256"
            }
          ],
          "internalType": "struct PoolInfo",
          "name": "",
          "type": "tuple"
        }
      ],
      "stateMutability": "view",
      "type": "function"
    },
    {
      "inputs": [],
      "name": "poolLength",
      "outputs": [
        {
          "internalType": "uint256",
          "name": "",
          "type": "uint256"
        }
      ],
      "stateMutability": "view",
      "type": "function"
    },
    {
      "inputs": [
        {
          "internalType": "uint256",
          "name": "pid",
          "type": "uint256"
        },
        {
          "internalType": "address",
          "name": "user",
          "type": "address"
        }
      ],
      "name": "userInfo",
      "outputs": [
        {
          "components": [
            {
              "components": [
                {
                  "internalType": "uint256",
                  "name": "amount",
                  "type": "uint256"
                },
                {
                  "internalType": "uint256",
                  "name": "totalRewardDebt",
                  "type": "uint256"
                }
              ],
              "internalType": "struct UserTokenData[]",
              "name": "tokenData",
              "type": "tuple[]"
            },
            {
              "components": [
                {
                  "internalType": "uint256",
                  "name": "startBlock",
                  "type": "uint256"
                },
                {
                  "internalType": "uint256",
                  "name": "endBlock",
                  "type": "uint256"
                },
                {
                  "internalType": "uint256[]",
                  "name": "amounts",
                  "type": "uint256[]"
                },
                {
                  "internalType": "uint256[]",
                  "name": "rewardDebts",
                  "type": "uint256[]"
                },
                {
                  "internalType": "address",
                  "name": "nftReward",
                  "type": "address"
                },
                {
                  "internalType": "uint256",
                  "name": "nftid",
                  "type": "uint256"
                }
              ],
              "internalType": "struct UserPosition[]",
              "name": "positions",
              "type": "tuple[]"
            },
            {
              "internalType": "uint256",
              "name": "lastRewardBlock",
              "type": "uint256"
            }
          ],
          "internalType": "struct UserInfo",
          "name": "",
          "type": "tuple"
        }
      ],
      "stateMutability": "view",
      "type": "function"
    },
    {
      "inputs": [
        {
          "internalType": "uint256",
          "name": "poolid",
          "type": "uint256"
        }
      ],
      "name": "validNFTsForPool",
      "outputs": [
        {
          "internalType": "address[]",
          "name": "",
          "type": "address[]"
        }
      ],
      "stateMutability": "nonpayable",
      "type": "function"
    },
    {
      "inputs": [
        {
          "internalType": "uint256",
          "name": "pid",
          "type": "uint256"
        },
        {
          "internalType": "uint256",
          "name": "positionid",
          "type": "uint256"
        }
      ],
      "name": "withdraw",
      "outputs": [],
      "stateMutability": "nonpayable",
      "type": "function"
    }
  ],
  "bytecode": "0x608060405234801561001057600080fd5b50613f98806100206000396000f3fe608060405234801561001057600080fd5b50600436106100935760003560e01c806349c514831161006657806349c514831461013257806393f1a40b14610162578063aae7de7414610192578063d6bf2e06146101ae578063f756c82d146101ca57610093565b8063081e3eda146100985780630fe6f43e146100b65780631526fe27146100e6578063441a3e7014610116575b600080fd5b6100a06101e6565b6040516100ad9190612678565b60405180910390f35b6100d060048036038101906100cb91906126d3565b6101fe565b6040516100dd91906127f0565b60405180910390f35b61010060048036038101906100fb91906126d3565b610231565b60405161010d91906129c1565b60405180910390f35b610130600480360381019061012b91906129e3565b61034a565b005b61014c60048036038101906101479190612a4f565b611004565b6040516101599190612aaa565b60405180910390f35b61017c60048036038101906101779190612a4f565b611041565b6040516101899190612dfb565b60405180910390f35b6101ac60048036038101906101a79190612f76565b6112bb565b005b6101c860048036038101906101c391906131bf565b611bc1565b005b6101e460048036038101906101df919061334b565b611d99565b005b6000806101f1612170565b9050806006015491505090565b6060600061020a612170565b905061022981601b016000858152602001908152602001600020612175565b915050919050565b6102396125b3565b6000610243612170565b905080600701600084815260200190815260200160002060405180606001604052908160008201805480602002602001604051908101604052809291908181526020016000905b8282101561032657838290600052602060002090600302016040518060600160405290816000820160009054906101000a900473ffffffffffffffffffffffffffffffffffffffff1673ffffffffffffffffffffffffffffffffffffffff1673ffffffffffffffffffffffffffffffffffffffff168152602001600182015481526020016002820154815250508152602001906001019061028a565b50505050815260200160018201548152602001600282015481525050915050919050565b6103886040518060400160405280601e81526020017f546f6b656e4661726d46616365743a3a77697468647261773a3a746573740000815250612196565b6000610392612170565b90503073ffffffffffffffffffffffffffffffffffffffff166351eb05a6846040518263ffffffff1660e01b81526004016103cd9190612678565b600060405180830381600087803b1580156103e757600080fd5b505af11580156103fb573d6000803e3d6000fd5b50505050600081600501600085815260200190815260200160002060003373ffffffffffffffffffffffffffffffffffffffff1673ffffffffffffffffffffffffffffffffffffffff16815260200190815260200160002090508281600101805490501161049e576040517f08c379a00000000000000000000000000000000000000000000000000000000081526004016104959061346d565b60405180910390fd5b60008160010184815481106104b6576104b561348d565b5b906000526020600020906006020190506000805b826002018054905081101561051a578260020181815481106104ef576104ee61348d565b5b90600052602060002001548261050591906134eb565b9150808061051290613541565b9150506104ca565b506000811161055e576040517f08c379a0000000000000000000000000000000000000000000000000000000008152600401610555906135fc565b60405180910390fd5b600073ffffffffffffffffffffffffffffffffffffffff168260040160009054906101000a900473ffffffffffffffffffffffffffffffffffffffff1673ffffffffffffffffffffffffffffffffffffffff161461085557600084601d0160008460040160009054906101000a900473ffffffffffffffffffffffffffffffffffffffff1673ffffffffffffffffffffffffffffffffffffffff1673ffffffffffffffffffffffffffffffffffffffff1681526020019081526020016000206040518060600160405290816000820160009054906101000a900460e01b7bffffffffffffffffffffffffffffffffffffffffffffffffffffffff19167bffffffffffffffffffffffffffffffffffffffffffffffffffffffff191681526020016000820160049054906101000a900460e01b7bffffffffffffffffffffffffffffffffffffffffffffffffffffffff19167bffffffffffffffffffffffffffffffffffffffffffffffffffffffff191681526020016000820160089054906101000a900460e01b7bffffffffffffffffffffffffffffffffffffffffffffffffffffffff19167bffffffffffffffffffffffffffffffffffffffffffffffffffffffff191681525050905060008160000151888860405160240161074392919061361c565b604051602081830303815290604052907bffffffffffffffffffffffffffffffffffffffffffffffffffffffff19166020820180517bffffffffffffffffffffffffffffffffffffffffffffffffffffffff8381831617835250505050905060003073ffffffffffffffffffffffffffffffffffffffff16826040516107c991906136bf565b600060405180830381855af49150503d8060008114610804576040519150601f19603f3d011682016040523d82523d6000602084013e610809565b606091505b505090508061084d576040517f08c379a000000000000000000000000000000000000000000000000000000000815260040161084490613722565b60405180910390fd5b505050610fb7565b600084600701600088815260200190815260200160002090506000805b8560000180549050811015610e6a5760008360000182815481106108995761089861348d565b5b906000526020600020906003020160000160009054906101000a900473ffffffffffffffffffffffffffffffffffffffff1690506000866000015487600101546108e39190613742565b90508660030183815481106108fb576108fa61348d565b5b906000526020600020015485600001848154811061091c5761091b61348d565b5b9060005260206000209060030201600201548860020185815481106109445761094361348d565b5b90600052602060002001546109599190613776565b6109639190613742565b8461096e91906134eb565b935043876001015411610ab9578173ffffffffffffffffffffffffffffffffffffffff1663a9059cbb338960020186815481106109ae576109ad61348d565b5b90600052602060002001546040518363ffffffff1660e01b81526004016109d69291906137df565b6020604051808303816000875af11580156109f5573d6000803e3d6000fd5b505050506040513d601f19601f82011682018060405250810190610a19919061381d565b503073ffffffffffffffffffffffffffffffffffffffff16636421dfe333848a6002018781548110610a4e57610a4d61348d565b5b906000526020600020015485610a649190613776565b6040518463ffffffff1660e01b8152600401610a829392919061384a565b600060405180830381600087803b158015610a9c57600080fd5b505af1158015610ab0573d6000803e3d6000fd5b50505050610cc8565b6000803073ffffffffffffffffffffffffffffffffffffffff1663f35261578a600001548b600101548c6002018981548110610af857610af761348d565b5b90600052602060002001546040518463ffffffff1660e01b8152600401610b2193929190613881565b6040805180830381865afa158015610b3d573d6000803e3d6000fd5b505050506040513d601f19601f82011682018060405250810190610b6191906138cd565b915091508373ffffffffffffffffffffffffffffffffffffffff1663a9059cbb33846040518363ffffffff1660e01b8152600401610ba09291906137df565b6020604051808303816000875af1158015610bbf573d6000803e3d6000fd5b505050506040513d601f19601f82011682018060405250810190610be3919061381d565b5082896002018681548110610bfb57610bfa61348d565b5b9060005260206000200154610c109190613776565b8b60010160008673ffffffffffffffffffffffffffffffffffffffff1673ffffffffffffffffffffffffffffffffffffffff1681526020019081526020016000206000016000828254610c639190613742565b92505081905550808b60010160008673ffffffffffffffffffffffffffffffffffffffff1673ffffffffffffffffffffffffffffffffffffffff1681526020019081526020016000206002016000828254610cbe91906134eb565b9250508190555050505b866002018381548110610cde57610cdd61348d565b5b9060005260206000200154886000018481548110610cff57610cfe61348d565b5b90600052602060002090600202016000016000828254610d1f9190613742565b92505081905550846000018381548110610d3c57610d3b61348d565b5b906000526020600020906003020160020154886000018481548110610d6457610d6361348d565b5b906000526020600020906002020160000154610d809190613776565b886000018481548110610d9657610d9561348d565b5b906000526020600020906002020160010181905550866002018381548110610dc157610dc061348d565b5b9060005260206000200154856000018481548110610de257610de161348d565b5b90600052602060002090600302016001016000828254610e029190613742565b925050819055506000876002018481548110610e2157610e2061348d565b5b90600052602060002001819055506000876003018481548110610e4757610e4661348d565b5b906000526020600020018190555050508080610e6290613541565b915050610872565b506000866000015482610e7d919061393c565b90506000811115610fb35743856001015411610f96573073ffffffffffffffffffffffffffffffffffffffff1663a9059cbb33836040518363ffffffff1660e01b8152600401610ece9291906137df565b6020604051808303816000875af1158015610eed573d6000803e3d6000fd5b505050506040513d601f19601f82011682018060405250810190610f11919061381d565b503073ffffffffffffffffffffffffffffffffffffffff16635ccc4b7033876000015488600101548760010154866040518663ffffffff1660e01b8152600401610f5f95949392919061396d565b600060405180830381600087803b158015610f7957600080fd5b505af1158015610f8d573d6000803e3d6000fd5b50505050610fb2565b80876002016000828254610faa91906134eb565b925050819055505b5b5050505b84863373ffffffffffffffffffffffffffffffffffffffff167ff279e6a1f5e320cca91135676d9cb6e44ca8a08c0b88342bcdb1144f6511b56860405160405180910390a4505050505050565b60008061100f612170565b90506110388382601b01600087815260200190815260200160002061222f90919063ffffffff16565b91505092915050565b6110496125d4565b6000611053612170565b905080600501600085815260200190815260200160002060008473ffffffffffffffffffffffffffffffffffffffff1673ffffffffffffffffffffffffffffffffffffffff16815260200190815260200160002060405180606001604052908160008201805480602002602001604051908101604052809291908181526020016000905b8282101561111d578382906000526020600020906002020160405180604001604052908160008201548152602001600182015481525050815260200190600101906110d7565b50505050815260200160018201805480602002602001604051908101604052809291908181526020016000905b828210156112a057838290600052602060002090600602016040518060c00160405290816000820154815260200160018201548152602001600282018054806020026020016040519081016040528092919081815260200182805480156111d057602002820191906000526020600020905b8154815260200190600101908083116111bc575b505050505081526020016003820180548060200260200160405190810160405280929190818152602001828054801561122857602002820191906000526020600020905b815481526020019060010190808311611214575b505050505081526020016004820160009054906101000a900473ffffffffffffffffffffffffffffffffffffffff1673ffffffffffffffffffffffffffffffffffffffff1673ffffffffffffffffffffffffffffffffffffffff1681526020016005820154815250508152602001906001019061114a565b50505050815260200160028201548152505091505092915050565b60006112c5612170565b90503073ffffffffffffffffffffffffffffffffffffffff166351eb05a6876040518263ffffffff1660e01b81526004016113009190612678565b600060405180830381600087803b15801561131a57600080fd5b505af115801561132e573d6000803e3d6000fd5b5050505060006040518060c00160405280438152602001864361135191906134eb565b8152602001878152602001600267ffffffffffffffff81111561137757611376612e33565b5b6040519080825280602002602001820160405280156113a55781602001602082028036833780820191505090505b508152602001600073ffffffffffffffffffffffffffffffffffffffff16815260200160008152509050600073ffffffffffffffffffffffffffffffffffffffff168473ffffffffffffffffffffffffffffffffffffffff16146115d75761142a8483601b0160008a815260200190815260200160002061222f90919063ffffffff16565b611469576040517f08c379a000000000000000000000000000000000000000000000000000000000815260040161146090613a32565b60405180910390fd5b60008473ffffffffffffffffffffffffffffffffffffffff1662fdd58e33866040518363ffffffff1660e01b81526004016114a59291906137df565b602060405180830381865afa1580156114c2573d6000803e3d6000fd5b505050506040513d601f19601f820116820180604052508101906114e69190613a52565b11611526576040517f08c379a000000000000000000000000000000000000000000000000000000000815260040161151d90613acb565b60405180910390fd5b8373ffffffffffffffffffffffffffffffffffffffff16639a318c2c8460016040518363ffffffff1660e01b8152600401611562929190613aeb565b600060405180830381600087803b15801561157c57600080fd5b505af1158015611590573d6000803e3d6000fd5b5050505083816080019073ffffffffffffffffffffffffffffffffffffffff16908173ffffffffffffffffffffffffffffffffffffffff1681525050828160a00181815250505b6000826007016000898152602001908152602001600020905060008360050160008a815260200190815260200160002060003373ffffffffffffffffffffffffffffffffffffffff1673ffffffffffffffffffffffffffffffffffffffff16815260200190815260200160002090508751826000018054905014611690576040517f08c379a000000000000000000000000000000000000000000000000000000000815260040161168790613b86565b60405180910390fd5b60005b8260000180549050811015611a70578082600001805490501161170b578160000160405180604001604052806000815260200160008152509080600181540180825580915050600190039060005260206000209060020201600090919091909150600082015181600001556020820151816001015550505b8260000181815481106117215761172061348d565b5b906000526020600020906003020160000160009054906101000a900473ffffffffffffffffffffffffffffffffffffffff1673ffffffffffffffffffffffffffffffffffffffff166323b872dd33308c85815181106117835761178261348d565b5b60200260200101516040518463ffffffff1660e01b81526004016117a99392919061384a565b6020604051808303816000875af11580156117c8573d6000803e3d6000fd5b505050506040513d601f19601f820116820180604052508101906117ec919061381d565b50888181518110611800576117ff61348d565b5b602002602001015182600001828154811061181e5761181d61348d565b5b9060005260206000209060020201600001600082825461183e91906134eb565b925050819055508881815181106118585761185761348d565b5b60200260200101518360000182815481106118765761187561348d565b5b9060005260206000209060030201600101600082825461189691906134eb565b92505081905550878982815181106118b1576118b061348d565b5b60200260200101516118c39190613776565b8560010160008560000184815481106118df576118de61348d565b5b906000526020600020906003020160000160009054906101000a900473ffffffffffffffffffffffffffffffffffffffff1673ffffffffffffffffffffffffffffffffffffffff1673ffffffffffffffffffffffffffffffffffffffff168152602001908152602001600020600001600082825461195d91906134eb565b9250508190555082600001818154811061197a5761197961348d565b5b906000526020600020906003020160020154846040015182815181106119a3576119a261348d565b5b60200260200101516119b59190613776565b846060015182815181106119cc576119cb61348d565b5b6020026020010181815250508260000181815481106119ee576119ed61348d565b5b906000526020600020906003020160020154826000018281548110611a1657611a1561348d565b5b906000526020600020906002020160000154611a329190613776565b826000018281548110611a4857611a4761348d565b5b9060005260206000209060020201600101819055508080611a6890613541565b915050611693565b508060010183908060018154018082558091505060019003906000526020600020906006020160009091909190915060008201518160000155602082015181600101556040820151816002019080519060200190611acf9291906125f5565b506060820151816003019080519060200190611aec9291906125f5565b5060808201518160040160006101000a81548173ffffffffffffffffffffffffffffffffffffffff021916908373ffffffffffffffffffffffffffffffffffffffff16021790555060a08201518160050155505060018160010180549050611b549190613742565b893373ffffffffffffffffffffffffffffffffffffffff167fadf75bb4bd94e6ab9b506e35af57c9e882c189f300581fb7cddbbae7c9f7b04a438b43611b9a91906134eb565b8d8c8c604051611bae959493929190613c15565b60405180910390a4505050505050505050565b611bc961225f565b6000611bd3612170565b90508151835114611c19576040517f08c379a0000000000000000000000000000000000000000000000000000000008152600401611c1090613ce1565b60405180910390fd5b60005b8351811015611d5857611c66848281518110611c3b57611c3a61348d565b5b602002602001015183601b01600088815260200190815260200160002061222f90919063ffffffff16565b15611cda5760001515838281518110611c8257611c8161348d565b5b602002602001015115151415611cd557611cd3848281518110611ca857611ca761348d565b5b602002602001015183601b0160008881526020019081526020016000206122fa90919063ffffffff16565b505b611d45565b60011515838281518110611cf157611cf061348d565b5b602002602001015115151415611d4457611d42848281518110611d1757611d1661348d565b5b602002602001015183601b01600088815260200190815260200160002061232a90919063ffffffff16565b505b5b8080611d5090613541565b915050611c1c565b50837f255c08aff70dcd01f5fe8feea0fae69dfbda1ed38f28f4cfadbffaf7e60627968484604051611d8b929190613dbf565b60405180910390a250505050565b611da161225f565b6000611dab612170565b90508115611e14573073ffffffffffffffffffffffffffffffffffffffff1663630b5ba16040518163ffffffff1660e01b8152600401600060405180830381600087803b158015611dfb57600080fd5b505af1158015611e0f573d6000803e3d6000fd5b505050505b600081600b01544311611e2b5781600b0154611e2d565b435b90508482600a016000828254611e4391906134eb565b92505081905550600082600601549050858360070160008381526020019081526020016000206001018190555081836007016000838152602001908152602001600020600201819055506000875167ffffffffffffffff811115611eaa57611ea9612e33565b5b604051908082528060200260200182016040528015611ed85781602001602082028036833780820191505090505b50905060005b885181101561204d57888181518110611efa57611ef961348d565b5b6020026020010151828281518110611f1557611f1461348d565b5b602002602001019073ffffffffffffffffffffffffffffffffffffffff16908173ffffffffffffffffffffffffffffffffffffffff168152505084600701600084815260200190815260200160002060000160405180606001604052808b8481518110611f8557611f8461348d565b5b602002602001015173ffffffffffffffffffffffffffffffffffffffff168152602001600081526020016000815250908060018154018082558091505060019003906000526020600020906003020160009091909190915060008201518160000160006101000a81548173ffffffffffffffffffffffffffffffffffffffff021916908373ffffffffffffffffffffffffffffffffffffffff16021790555060208201518160010155604082015181600201555050808061204590613541565b915050611ede565b5060005b86518110156120af5761209b8782815181106120705761206f61348d565b5b602002602001015186601b01600086815260200190815260200160002061232a90919063ffffffff16565b5080806120a790613541565b915050612051565b508360060160008154809291906120c590613541565b91905055503073ffffffffffffffffffffffffffffffffffffffff16639b9c44776040518163ffffffff1660e01b8152600401600060405180830381600087803b15801561211257600080fd5b505af1158015612126573d6000803e3d6000fd5b50505050817f62ffbc017a46c837a81e903b2c9bb4925ed92bfe4e7a7148a1f57f9125d8b7f482888a60405161215e93929190613df6565b60405180910390a25050505050505050565b600090565b606060006121858360000161235a565b905060608190508092505050919050565b61222c816040516024016121aa9190613e7f565b6040516020818303038152906040527f41304fac000000000000000000000000000000000000000000000000000000007bffffffffffffffffffffffffffffffffffffffffffffffffffffffff19166020820180517bffffffffffffffffffffffffffffffffffffffffffffffffffffffff83818316178352505050506123b6565b50565b6000612257836000018373ffffffffffffffffffffffffffffffffffffffff1660001b6123df565b905092915050565b612267612402565b60040160009054906101000a900473ffffffffffffffffffffffffffffffffffffffff1673ffffffffffffffffffffffffffffffffffffffff163373ffffffffffffffffffffffffffffffffffffffff16146122f8576040517f08c379a00000000000000000000000000000000000000000000000000000000081526004016122ef90613f13565b60405180910390fd5b565b6000612322836000018373ffffffffffffffffffffffffffffffffffffffff1660001b61242f565b905092915050565b6000612352836000018373ffffffffffffffffffffffffffffffffffffffff1660001b612543565b905092915050565b6060816000018054806020026020016040519081016040528092919081815260200182805480156123aa57602002820191906000526020600020905b815481526020019060010190808311612396575b50505050509050919050565b60008151905060006a636f6e736f6c652e6c6f679050602083016000808483855afa5050505050565b600080836001016000848152602001908152602001600020541415905092915050565b6000807fc8fcad8db84d3cc18b4c41d551ea0ee66dd599cde068d998e57d5e09332c131c90508091505090565b600080836001016000848152602001908152602001600020549050600081146125375760006001826124619190613742565b90506000600186600001805490506124799190613742565b90508181146124e857600086600001828154811061249a5761249961348d565b5b90600052602060002001549050808760000184815481106124be576124bd61348d565b5b90600052602060002001819055508387600101600083815260200190815260200160002081905550505b856000018054806124fc576124fb613f33565b5b60019003818190600052602060002001600090559055856001016000868152602001908152602001600020600090556001935050505061253d565b60009150505b92915050565b600061254f83836123df565b6125a85782600001829080600181540180825580915050600190039060005260206000200160009091909190915055826000018054905083600101600084815260200190815260200160002081905550600190506125ad565b600090505b92915050565b60405180606001604052806060815260200160008152602001600081525090565b60405180606001604052806060815260200160608152602001600081525090565b828054828255906000526020600020908101928215612631579160200282015b82811115612630578251825591602001919060010190612615565b5b50905061263e9190612642565b5090565b5b8082111561265b576000816000905550600101612643565b5090565b6000819050919050565b6126728161265f565b82525050565b600060208201905061268d6000830184612669565b92915050565b6000604051905090565b600080fd5b600080fd5b6126b08161265f565b81146126bb57600080fd5b50565b6000813590506126cd816126a7565b92915050565b6000602082840312156126e9576126e861269d565b5b60006126f7848285016126be565b91505092915050565b600081519050919050565b600082825260208201905092915050565b6000819050602082019050919050565b600073ffffffffffffffffffffffffffffffffffffffff82169050919050565b60006127578261272c565b9050919050565b6127678161274c565b82525050565b6000612779838361275e565b60208301905092915050565b6000602082019050919050565b600061279d82612700565b6127a7818561270b565b93506127b28361271c565b8060005b838110156127e35781516127ca888261276d565b97506127d583612785565b9250506001810190506127b6565b5085935050505092915050565b6000602082019050818103600083015261280a8184612792565b905092915050565b600081519050919050565b600082825260208201905092915050565b6000819050602082019050919050565b6000819050919050565b600061286361285e6128598461272c565b61283e565b61272c565b9050919050565b600061287582612848565b9050919050565b60006128878261286a565b9050919050565b6128978161287c565b82525050565b6128a68161265f565b82525050565b6060820160008201516128c2600085018261288e565b5060208201516128d5602085018261289d565b5060408201516128e8604085018261289d565b50505050565b60006128fa83836128ac565b60608301905092915050565b6000602082019050919050565b600061291e82612812565b612928818561281d565b93506129338361282e565b8060005b8381101561296457815161294b88826128ee565b975061295683612906565b925050600181019050612937565b5085935050505092915050565b6000606083016000830151848203600086015261298e8282612913565b91505060208301516129a3602086018261289d565b5060408301516129b6604086018261289d565b508091505092915050565b600060208201905081810360008301526129db8184612971565b905092915050565b600080604083850312156129fa576129f961269d565b5b6000612a08858286016126be565b9250506020612a19858286016126be565b9150509250929050565b612a2c8161274c565b8114612a3757600080fd5b50565b600081359050612a4981612a23565b92915050565b60008060408385031215612a6657612a6561269d565b5b6000612a74858286016126be565b9250506020612a8585828601612a3a565b9150509250929050565b60008115159050919050565b612aa481612a8f565b82525050565b6000602082019050612abf6000830184612a9b565b92915050565b600081519050919050565b600082825260208201905092915050565b6000819050602082019050919050565b604082016000820151612b07600085018261289d565b506020820151612b1a602085018261289d565b50505050565b6000612b2c8383612af1565b60408301905092915050565b6000602082019050919050565b6000612b5082612ac5565b612b5a8185612ad0565b9350612b6583612ae1565b8060005b83811015612b96578151612b7d8882612b20565b9750612b8883612b38565b925050600181019050612b69565b5085935050505092915050565b600081519050919050565b600082825260208201905092915050565b6000819050602082019050919050565b600081519050919050565b600082825260208201905092915050565b6000819050602082019050919050565b6000612c07838361289d565b60208301905092915050565b6000602082019050919050565b6000612c2b82612bcf565b612c358185612bda565b9350612c4083612beb565b8060005b83811015612c71578151612c588882612bfb565b9750612c6383612c13565b925050600181019050612c44565b5085935050505092915050565b600060c083016000830151612c96600086018261289d565b506020830151612ca9602086018261289d565b5060408301518482036040860152612cc18282612c20565b91505060608301518482036060860152612cdb8282612c20565b9150506080830151612cf0608086018261275e565b5060a0830151612d0360a086018261289d565b508091505092915050565b6000612d1a8383612c7e565b905092915050565b6000602082019050919050565b6000612d3a82612ba3565b612d448185612bae565b935083602082028501612d5685612bbf565b8060005b85811015612d925784840389528151612d738582612d0e565b9450612d7e83612d22565b925060208a01995050600181019050612d5a565b50829750879550505050505092915050565b60006060830160008301518482036000860152612dc18282612b45565b91505060208301518482036020860152612ddb8282612d2f565b9150506040830151612df0604086018261289d565b508091505092915050565b60006020820190508181036000830152612e158184612da4565b905092915050565b600080fd5b6000601f19601f8301169050919050565b7f4e487b7100000000000000000000000000000000000000000000000000000000600052604160045260246000fd5b612e6b82612e22565b810181811067ffffffffffffffff82111715612e8a57612e89612e33565b5b80604052505050565b6000612e9d612693565b9050612ea98282612e62565b919050565b600067ffffffffffffffff821115612ec957612ec8612e33565b5b602082029050602081019050919050565b600080fd5b6000612ef2612eed84612eae565b612e93565b90508083825260208201905060208402830185811115612f1557612f14612eda565b5b835b81811015612f3e5780612f2a88826126be565b845260208401935050602081019050612f17565b5050509392505050565b600082601f830112612f5d57612f5c612e1d565b5b8135612f6d848260208601612edf565b91505092915050565b600080600080600060a08688031215612f9257612f9161269d565b5b6000612fa0888289016126be565b955050602086013567ffffffffffffffff811115612fc157612fc06126a2565b5b612fcd88828901612f48565b9450506040612fde888289016126be565b9350506060612fef88828901612a3a565b9250506080613000888289016126be565b9150509295509295909350565b600067ffffffffffffffff82111561302857613027612e33565b5b602082029050602081019050919050565b600061304c6130478461300d565b612e93565b9050808382526020820190506020840283018581111561306f5761306e612eda565b5b835b8181101561309857806130848882612a3a565b845260208401935050602081019050613071565b5050509392505050565b600082601f8301126130b7576130b6612e1d565b5b81356130c7848260208601613039565b91505092915050565b600067ffffffffffffffff8211156130eb576130ea612e33565b5b602082029050602081019050919050565b61310581612a8f565b811461311057600080fd5b50565b600081359050613122816130fc565b92915050565b600061313b613136846130d0565b612e93565b9050808382526020820190506020840283018581111561315e5761315d612eda565b5b835b8181101561318757806131738882613113565b845260208401935050602081019050613160565b5050509392505050565b600082601f8301126131a6576131a5612e1d565b5b81356131b6848260208601613128565b91505092915050565b6000806000606084860312156131d8576131d761269d565b5b60006131e6868287016126be565b935050602084013567ffffffffffffffff811115613207576132066126a2565b5b613213868287016130a2565b925050604084013567ffffffffffffffff811115613234576132336126a2565b5b61324086828701613191565b9150509250925092565b600067ffffffffffffffff82111561326557613264612e33565b5b602082029050602081019050919050565b60006132818261274c565b9050919050565b61329181613276565b811461329c57600080fd5b50565b6000813590506132ae81613288565b92915050565b60006132c76132c28461324a565b612e93565b905080838252602082019050602084028301858111156132ea576132e9612eda565b5b835b8181101561331357806132ff888261329f565b8452602084019350506020810190506132ec565b5050509392505050565b600082601f83011261333257613331612e1d565b5b81356133428482602086016132b4565b91505092915050565b600080600080608085870312156133655761336461269d565b5b600085013567ffffffffffffffff811115613383576133826126a2565b5b61338f8782880161331d565b94505060206133a0878288016126be565b935050604085013567ffffffffffffffff8111156133c1576133c06126a2565b5b6133cd878288016130a2565b92505060606133de87828801613113565b91505092959194509250565b600082825260208201905092915050565b7f706f736974696f6e2077697468207468617420696420646f6573206e6f74206560008201527f7869737400000000000000000000000000000000000000000000000000000000602082015250565b60006134576024836133ea565b9150613462826133fb565b604082019050919050565b600060208201905081810360008301526134868161344a565b9050919050565b7f4e487b7100000000000000000000000000000000000000000000000000000000600052603260045260246000fd5b7f4e487b7100000000000000000000000000000000000000000000000000000000600052601160045260246000fd5b60006134f68261265f565b91506135018361265f565b9250827fffffffffffffffffffffffffffffffffffffffffffffffffffffffffffffffff03821115613536576135356134bc565b5b828201905092915050565b600061354c8261265f565b91507fffffffffffffffffffffffffffffffffffffffffffffffffffffffffffffffff82141561357f5761357e6134bc565b5b600182019050919050565b7f6e6f7468696e6720696e207468697320706f736974696f6e20746f207769746860008201527f6472617700000000000000000000000000000000000000000000000000000000602082015250565b60006135e66024836133ea565b91506135f18261358a565b604082019050919050565b60006020820190508181036000830152613615816135d9565b9050919050565b60006040820190506136316000830185612669565b61363e6020830184612669565b9392505050565b600081519050919050565b600081905092915050565b60005b8381101561367957808201518184015260208101905061365e565b83811115613688576000848401525b50505050565b600061369982613645565b6136a38185613650565b93506136b381856020860161365b565b80840191505092915050565b60006136cb828461368e565b915081905092915050565b7f7769746864726177206661696c65640000000000000000000000000000000000600082015250565b600061370c600f836133ea565b9150613717826136d6565b602082019050919050565b6000602082019050818103600083015261373b816136ff565b9050919050565b600061374d8261265f565b91506137588361265f565b92508282101561376b5761376a6134bc565b5b828203905092915050565b60006137818261265f565b915061378c8361265f565b9250817fffffffffffffffffffffffffffffffffffffffffffffffffffffffffffffffff04831182151516156137c5576137c46134bc565b5b828202905092915050565b6137d98161274c565b82525050565b60006040820190506137f460008301856137d0565b6138016020830184612669565b9392505050565b600081519050613817816130fc565b92915050565b6000602082840312156138335761383261269d565b5b600061384184828501613808565b91505092915050565b600060608201905061385f60008301866137d0565b61386c60208301856137d0565b6138796040830184612669565b949350505050565b60006060820190506138966000830186612669565b6138a36020830185612669565b6138b06040830184612669565b949350505050565b6000815190506138c7816126a7565b92915050565b600080604083850312156138e4576138e361269d565b5b60006138f2858286016138b8565b9250506020613903858286016138b8565b9150509250929050565b7f4e487b7100000000000000000000000000000000000000000000000000000000600052601260045260246000fd5b60006139478261265f565b91506139528361265f565b9250826139625761396161390d565b5b828204905092915050565b600060a08201905061398260008301886137d0565b61398f6020830187612669565b61399c6040830186612669565b6139a96060830185612669565b6139b66080830184612669565b9695505050505050565b7f63686f73656e204e4654206973206e6f742070617274206f6620746865206c6960008201527f7374206f662076616c6964206f6e657320666f72207468697320706f6f6c0000602082015250565b6000613a1c603e836133ea565b9150613a27826139c0565b604082019050919050565b60006020820190508181036000830152613a4b81613a0f565b9050919050565b600060208284031215613a6857613a6761269d565b5b6000613a76848285016138b8565b91505092915050565b7f5573657220646f6573206e6f7420686176652074686973206e66740000000000600082015250565b6000613ab5601b836133ea565b9150613ac082613a7f565b602082019050919050565b60006020820190508181036000830152613ae481613aa8565b9050919050565b6000604082019050613b006000830185612669565b613b0d6020830184612a9b565b9392505050565b7f706c6561736520696e737572652074686520616d6f756e7473206d617463682060008201527f74686520616d6f756e74206f662063727970746f7320696e20706f6f6c000000602082015250565b6000613b70603d836133ea565b9150613b7b82613b14565b604082019050919050565b60006020820190508181036000830152613b9f81613b63565b9050919050565b600082825260208201905092915050565b6000613bc282612bcf565b613bcc8185613ba6565b9350613bd783612beb565b8060005b83811015613c08578151613bef8882612bfb565b9750613bfa83612c13565b925050600181019050613bdb565b5085935050505092915050565b600060a082019050613c2a6000830188612669565b613c376020830187612669565b8181036040830152613c498186613bb7565b9050613c5860608301856137d0565b613c656080830184612669565b9695505050505050565b7f706c65617365206d61746368206e66747320746f206e6577737461746573203160008201527f3a31000000000000000000000000000000000000000000000000000000000000602082015250565b6000613ccb6022836133ea565b9150613cd682613c6f565b604082019050919050565b60006020820190508181036000830152613cfa81613cbe565b9050919050565b600081519050919050565b600082825260208201905092915050565b6000819050602082019050919050565b613d3681612a8f565b82525050565b6000613d488383613d2d565b60208301905092915050565b6000602082019050919050565b6000613d6c82613d01565b613d768185613d0c565b9350613d8183613d1d565b8060005b83811015613db2578151613d998882613d3c565b9750613da483613d54565b925050600181019050613d85565b5085935050505092915050565b60006040820190508181036000830152613dd98185612792565b90508181036020830152613ded8184613d61565b90509392505050565b60006060820190508181036000830152613e108186612792565b90508181036020830152613e248185612792565b9050613e336040830184612669565b949350505050565b600081519050919050565b6000613e5182613e3b565b613e5b81856133ea565b9350613e6b81856020860161365b565b613e7481612e22565b840191505092915050565b60006020820190508181036000830152613e998184613e46565b905092915050565b7f4c69624469616d6f6e643a204d75737420626520636f6e7472616374206f776e60008201527f6572000000000000000000000000000000000000000000000000000000000000602082015250565b6000613efd6022836133ea565b9150613f0882613ea1565b604082019050919050565b60006020820190508181036000830152613f2c81613ef0565b9050919050565b7f4e487b7100000000000000000000000000000000000000000000000000000000600052603160045260246000fdfea26469706673582212206d635dbc3844a523ccd193fccb0b49658f58b0079c5220f669e421f570fcf17f64736f6c634300080a0033",
  "linkReferences": {},
  "deployedLinkReferences": {}
}